{"abi":[{"type":"constructor","inputs":[],"stateMutability":"nonpayable"},{"type":"function","name":"DEFAULT_ADMIN_ROLE","inputs":[],"outputs":[{"name":"","type":"bytes32","internalType":"bytes32"}],"stateMutability":"view"},{"type":"function","name":"MINTER_ROLE","inputs":[],"outputs":[{"name":"","type":"bytes32","internalType":"bytes32"}],"stateMutability":"view"},{"type":"function","name":"approve","inputs":[{"name":"to","type":"address","internalType":"address"},{"name":"tokenId","type":"uint256","internalType":"uint256"}],"outputs":[],"stateMutability":"nonpayable"},{"type":"function","name":"balanceOf","inputs":[{"name":"owner","type":"address","internalType":"address"}],"outputs":[{"name":"","type":"uint256","internalType":"uint256"}],"stateMutability":"view"},{"type":"function","name":"getApproved","inputs":[{"name":"tokenId","type":"uint256","internalType":"uint256"}],"outputs":[{"name":"","type":"address","internalType":"address"}],"stateMutability":"view"},{"type":"function","name":"getOrganizationBranding","inputs":[{"name":"organization","type":"address","internalType":"address"}],"outputs":[{"name":"logoUrl","type":"string","internalType":"string"},{"name":"brandColor","type":"string","internalType":"string"},{"name":"isRegistered","type":"bool","internalType":"bool"}],"stateMutability":"view"},{"type":"function","name":"getRoleAdmin","inputs":[{"name":"role","type":"bytes32","internalType":"bytes32"}],"outputs":[{"name":"","type":"bytes32","internalType":"bytes32"}],"stateMutability":"view"},{"type":"function","name":"grantRole","inputs":[{"name":"role","type":"bytes32","internalType":"bytes32"},{"name":"account","type":"address","internalType":"address"}],"outputs":[],"stateMutability":"nonpayable"},{"type":"function","name":"hasRole","inputs":[{"name":"role","type":"bytes32","internalType":"bytes32"},{"name":"account","type":"address","internalType":"address"}],"outputs":[{"name":"","type":"bool","internalType":"bool"}],"stateMutability":"view"},{"type":"function","name":"isApprovedForAll","inputs":[{"name":"owner","type":"address","internalType":"address"},{"name":"operator","type":"address","internalType":"address"}],"outputs":[{"name":"","type":"bool","internalType":"bool"}],"stateMutability":"view"},{"type":"function","name":"mintCertificate","inputs":[{"name":"recipient","type":"address","internalType":"address"},{"name":"certificateURI","type":"string","internalType":"string"}],"outputs":[{"name":"","type":"uint256","internalType":"uint256"}],"stateMutability":"nonpayable"},{"type":"function","name":"name","inputs":[],"outputs":[{"name":"","type":"string","internalType":"string"}],"stateMutability":"view"},{"type":"function","name":"organizationBranding","inputs":[{"name":"","type":"address","internalType":"address"}],"outputs":[{"name":"logoUrl","type":"string","internalType":"string"},{"name":"brandColor","type":"string","internalType":"string"},{"name":"isRegistered","type":"bool","internalType":"bool"}],"stateMutability":"view"},{"type":"function","name":"ownerOf","inputs":[{"name":"tokenId","type":"uint256","internalType":"uint256"}],"outputs":[{"name":"","type":"address","internalType":"address"}],"stateMutability":"view"},{"type":"function","name":"registerOrganization","inputs":[{"name":"logoUrl","type":"string","internalType":"string"},{"name":"brandColor","type":"string","internalType":"string"}],"outputs":[],"stateMutability":"nonpayable"},{"type":"function","name":"renounceRole","inputs":[{"name":"role","type":"bytes32","internalType":"bytes32"},{"name":"callerConfirmation","type":"address","internalType":"address"}],"outputs":[],"stateMutability":"nonpayable"},{"type":"function","name":"revokeRole","inputs":[{"name":"role","type":"bytes32","internalType":"bytes32"},{"name":"account","type":"address","internalType":"address"}],"outputs":[],"stateMutability":"nonpayable"},{"type":"function","name":"safeTransferFrom","inputs":[{"name":"from","type":"address","internalType":"address"},{"name":"to","type":"address","internalType":"address"},{"name":"tokenId","type":"uint256","internalType":"uint256"}],"outputs":[],"stateMutability":"nonpayable"},{"type":"function","name":"safeTransferFrom","inputs":[{"name":"from","type":"address","internalType":"address"},{"name":"to","type":"address","internalType":"address"},{"name":"tokenId","type":"uint256","internalType":"uint256"},{"name":"data","type":"bytes","internalType":"bytes"}],"outputs":[],"stateMutability":"nonpayable"},{"type":"function","name":"setApprovalForAll","inputs":[{"name":"operator","type":"address","internalType":"address"},{"name":"approved","type":"bool","internalType":"bool"}],"outputs":[],"stateMutability":"nonpayable"},{"type":"function","name":"supportsInterface","inputs":[{"name":"interfaceId","type":"bytes4","internalType":"bytes4"}],"outputs":[{"name":"","type":"bool","internalType":"bool"}],"stateMutability":"view"},{"type":"function","name":"symbol","inputs":[],"outputs":[{"name":"","type":"string","internalType":"string"}],"stateMutability":"view"},{"type":"function","name":"tokenURI","inputs":[{"name":"tokenId","type":"uint256","internalType":"uint256"}],"outputs":[{"name":"","type":"string","internalType":"string"}],"stateMutability":"view"},{"type":"function","name":"transferFrom","inputs":[{"name":"from","type":"address","internalType":"address"},{"name":"to","type":"address","internalType":"address"},{"name":"tokenId","type":"uint256","internalType":"uint256"}],"outputs":[],"stateMutability":"nonpayable"},{"type":"function","name":"updateOrganizationBranding","inputs":[{"name":"logoUrl","type":"string","internalType":"string"},{"name":"brandColor","type":"string","internalType":"string"}],"outputs":[],"stateMutability":"nonpayable"},{"type":"event","name":"Approval","inputs":[{"name":"owner","type":"address","indexed":true,"internalType":"address"},{"name":"approved","type":"address","indexed":true,"internalType":"address"},{"name":"tokenId","type":"uint256","indexed":true,"internalType":"uint256"}],"anonymous":false},{"type":"event","name":"ApprovalForAll","inputs":[{"name":"owner","type":"address","indexed":true,"internalType":"address"},{"name":"operator","type":"address","indexed":true,"internalType":"address"},{"name":"approved","type":"bool","indexed":false,"internalType":"bool"}],"anonymous":false},{"type":"event","name":"BatchMetadataUpdate","inputs":[{"name":"_fromTokenId","type":"uint256","indexed":false,"internalType":"uint256"},{"name":"_toTokenId","type":"uint256","indexed":false,"internalType":"uint256"}],"anonymous":false},{"type":"event","name":"CertificateMinted","inputs":[{"name":"organization","type":"address","indexed":false,"internalType":"address"},{"name":"recipient","type":"address","indexed":false,"internalType":"address"},{"name":"tokenId","type":"uint256","indexed":false,"internalType":"uint256"},{"name":"tokenURI","type":"string","indexed":false,"internalType":"string"}],"anonymous":false},{"type":"event","name":"MetadataUpdate","inputs":[{"name":"_tokenId","type":"uint256","indexed":false,"internalType":"uint256"}],"anonymous":false},{"type":"event","name":"OrganizationRegistered","inputs":[{"name":"organization","type":"address","indexed":false,"internalType":"address"},{"name":"logoUrl","type":"string","indexed":false,"internalType":"string"},{"name":"brandColor","type":"string","indexed":false,"internalType":"string"}],"anonymous":false},{"type":"event","name":"RoleAdminChanged","inputs":[{"name":"role","type":"bytes32","indexed":true,"internalType":"bytes32"},{"name":"previousAdminRole","type":"bytes32","indexed":true,"internalType":"bytes32"},{"name":"newAdminRole","type":"bytes32","indexed":true,"internalType":"bytes32"}],"anonymous":false},{"type":"event","name":"RoleGranted","inputs":[{"name":"role","type":"bytes32","indexed":true,"internalType":"bytes32"},{"name":"account","type":"address","indexed":true,"internalType":"address"},{"name":"sender","type":"address","indexed":true,"internalType":"address"}],"anonymous":false},{"type":"event","name":"RoleRevoked","inputs":[{"name":"role","type":"bytes32","indexed":true,"internalType":"bytes32"},{"name":"account","type":"address","indexed":true,"internalType":"address"},{"name":"sender","type":"address","indexed":true,"internalType":"address"}],"anonymous":false},{"type":"event","name":"Transfer","inputs":[{"name":"from","type":"address","indexed":true,"internalType":"address"},{"name":"to","type":"address","indexed":true,"internalType":"address"},{"name":"tokenId","type":"uint256","indexed":true,"internalType":"uint256"}],"anonymous":false},{"type":"error","name":"AccessControlBadConfirmation","inputs":[]},{"type":"error","name":"AccessControlUnauthorizedAccount","inputs":[{"name":"account","type":"address","internalType":"address"},{"name":"neededRole","type":"bytes32","internalType":"bytes32"}]},{"type":"error","name":"ERC721IncorrectOwner","inputs":[{"name":"sender","type":"address","internalType":"address"},{"name":"tokenId","type":"uint256","internalType":"uint256"},{"name":"owner","type":"address","internalType":"address"}]},{"type":"error","name":"ERC721InsufficientApproval","inputs":[{"name":"operator","type":"address","internalType":"address"},{"name":"tokenId","type":"uint256","internalType":"uint256"}]},{"type":"error","name":"ERC721InvalidApprover","inputs":[{"name":"approver","type":"address","internalType":"address"}]},{"type":"error","name":"ERC721InvalidOperator","inputs":[{"name":"operator","type":"address","internalType":"address"}]},{"type":"error","name":"ERC721InvalidOwner","inputs":[{"name":"owner","type":"address","internalType":"address"}]},{"type":"error","name":"ERC721InvalidReceiver","inputs":[{"name":"receiver","type":"address","internalType":"address"}]},{"type":"error","name":"ERC721InvalidSender","inputs":[{"name":"sender","type":"address","internalType":"address"}]},{"type":"error","name":"ERC721NonexistentToken","inputs":[{"name":"tokenId","type":"uint256","internalType":"uint256"}]}],"bytecode":{"object":"0x60806040526001600855348015610014575f80fd5b506040518060400160405280601a81526020017f4f7267616e697a6174696f6e4e465443657274696669636174650000000000008152506040518060400160405280600481526020017f4345525400000000000000000000000000000000000000000000000000000000815250815f908161008f9190610455565b50806001908161009f9190610455565b5050506100b45f801b336100ba60201b60201c565b50610524565b5f6100cb83836101b060201b60201c565b6101a657600160075f8581526020019081526020015f205f015f8473ffffffffffffffffffffffffffffffffffffffff1673ffffffffffffffffffffffffffffffffffffffff1681526020019081526020015f205f6101000a81548160ff02191690831515021790555061014361021460201b60201c565b73ffffffffffffffffffffffffffffffffffffffff168273ffffffffffffffffffffffffffffffffffffffff16847f2f8788117e7eff1d82e926ec794901d17c78024a50270940304540a733656f0d60405160405180910390a4600190506101aa565b5f90505b92915050565b5f60075f8481526020019081526020015f205f015f8373ffffffffffffffffffffffffffffffffffffffff1673ffffffffffffffffffffffffffffffffffffffff1681526020019081526020015f205f9054906101000a900460ff16905092915050565b5f33905090565b5f81519050919050565b7f4e487b71000000000000000000000000000000000000000000000000000000005f52604160045260245ffd5b7f4e487b71000000000000000000000000000000000000000000000000000000005f52602260045260245ffd5b5f600282049050600182168061029657607f821691505b6020821081036102a9576102a8610252565b5b50919050565b5f819050815f5260205f209050919050565b5f6020601f8301049050919050565b5f82821b905092915050565b5f6008830261030b7fffffffffffffffffffffffffffffffffffffffffffffffffffffffffffffffff826102d0565b61031586836102d0565b95508019841693508086168417925050509392505050565b5f819050919050565b5f819050919050565b5f61035961035461034f8461032d565b610336565b61032d565b9050919050565b5f819050919050565b6103728361033f565b61038661037e82610360565b8484546102dc565b825550505050565b5f90565b61039a61038e565b6103a5818484610369565b505050565b5b818110156103c8576103bd5f82610392565b6001810190506103ab565b5050565b601f82111561040d576103de816102af565b6103e7846102c1565b810160208510156103f6578190505b61040a610402856102c1565b8301826103aa565b50505b505050565b5f82821c905092915050565b5f61042d5f1984600802610412565b1980831691505092915050565b5f610445838361041e565b9150826002028217905092915050565b61045e8261021b565b67ffffffffffffffff81111561047757610476610225565b5b610481825461027f565b61048c8282856103cc565b5f60209050601f8311600181146104bd575f84156104ab578287015190505b6104b5858261043a565b86555061051c565b601f1984166104cb866102af565b5f5b828110156104f2578489015182556001820191506020850194506020810190506104cd565b8683101561050f578489015161050b601f89168261041e565b8355505b6001600288020188555050505b505050505050565b61327e806105315f395ff3fe608060405234801561000f575f80fd5b5060043610610171575f3560e01c80636352211e116100dc578063a22cb46511610095578063d53913931161006f578063d53913931461047d578063d547741f1461049b578063d896b430146104b7578063e985e9c5146104e957610171565b8063a22cb46514610415578063b88d4fde14610431578063c87b56dd1461044d57610171565b80636352211e1461031757806368304b371461034757806370a082311461037957806391d14854146103a957806395d89b41146103d9578063a217fddf146103f757610171565b8063247a50d81161012e578063247a50d81461025b578063248a9ca3146102775780632f2ff15d146102a757806336568abe146102c35780633ef9e6bb146102df57806342842e0e146102fb57610171565b806301ffc9a71461017557806306fdde03146101a55780630712249f146101c3578063081812fc146101f3578063095ea7b31461022357806323b872dd1461023f575b5f80fd5b61018f600480360381019061018a91906124b8565b610519565b60405161019c91906124fd565b60405180910390f35b6101ad61052a565b6040516101ba9190612586565b60405180910390f35b6101dd60048036038101906101d8919061272c565b6105b9565b6040516101ea919061279e565b60405180910390f35b61020d600480360381019061020891906127e1565b6106e5565b60405161021a919061281b565b60405180910390f35b61023d60048036038101906102389190612834565b610700565b005b61025960048036038101906102549190612872565b610716565b005b610275600480360381019061027091906128c2565b610815565b005b610291600480360381019061028c919061296b565b610926565b60405161029e91906129a5565b60405180910390f35b6102c160048036038101906102bc91906129be565b610943565b005b6102dd60048036038101906102d891906129be565b610965565b005b6102f960048036038101906102f491906128c2565b6109e0565b005b61031560048036038101906103109190612872565b610b71565b005b610331600480360381019061032c91906127e1565b610b90565b60405161033e919061281b565b60405180910390f35b610361600480360381019061035c91906129fc565b610ba1565b60405161037093929190612a27565b60405180910390f35b610393600480360381019061038e91906129fc565b610d45565b6040516103a0919061279e565b60405180910390f35b6103c360048036038101906103be91906129be565b610dfb565b6040516103d091906124fd565b60405180910390f35b6103e1610e5f565b6040516103ee9190612586565b60405180910390f35b6103ff610eef565b60405161040c91906129a5565b60405180910390f35b61042f600480360381019061042a9190612a94565b610ef5565b005b61044b60048036038101906104469190612b70565b610f0b565b005b610467600480360381019061046291906127e1565b610f30565b6040516104749190612586565b60405180910390f35b610485610f42565b60405161049291906129a5565b60405180910390f35b6104b560048036038101906104b091906129be565b610f66565b005b6104d160048036038101906104cc91906129fc565b610f88565b6040516104e093929190612a27565b60405180910390f35b61050360048036038101906104fe9190612bf0565b6110c6565b60405161051091906124fd565b60405180910390f35b5f61052382611154565b9050919050565b60605f805461053890612c5b565b80601f016020809104026020016040519081016040528092919081815260200182805461056490612c5b565b80156105af5780601f10610586576101008083540402835291602001916105af565b820191905f5260205f20905b81548152906001019060200180831161059257829003601f168201915b5050505050905090565b5f7f9f2df0fed2c77648de5860a4cc508cd0818c85b8b8a1ab4ceeef8d981c8956a66105e4816111cd565b60095f3373ffffffffffffffffffffffffffffffffffffffff1673ffffffffffffffffffffffffffffffffffffffff1681526020019081526020015f206002015f9054906101000a900460ff16610670576040517f08c379a000000000000000000000000000000000000000000000000000000000815260040161066790612cd5565b60405180910390fd5b5f60085f81548092919061068390612d20565b91905055905061069385826111e1565b61069d81856111fe565b7fdf2d1574c6b3e1f4b61d08b18e2a3dad594dc5cccaa20a48e47b2ea84524f850338683876040516106d29493929190612d67565b60405180910390a1809250505092915050565b5f6106ef82611258565b506106f9826112de565b9050919050565b610712828261070d611317565b61131e565b5050565b5f73ffffffffffffffffffffffffffffffffffffffff168273ffffffffffffffffffffffffffffffffffffffff1603610786575f6040517f64a0ae9200000000000000000000000000000000000000000000000000000000815260040161077d919061281b565b60405180910390fd5b5f6107998383610794611317565b611330565b90508373ffffffffffffffffffffffffffffffffffffffff168173ffffffffffffffffffffffffffffffffffffffff161461080f578382826040517f64283d7b00000000000000000000000000000000000000000000000000000000815260040161080693929190612db1565b60405180910390fd5b50505050565b60405180606001604052808381526020018281526020016001151581525060095f3373ffffffffffffffffffffffffffffffffffffffff1673ffffffffffffffffffffffffffffffffffffffff1681526020019081526020015f205f820151815f0190816108839190612f83565b5060208201518160010190816108999190612f83565b506040820151816002015f6101000a81548160ff0219169083151502179055509050506108e67f9f2df0fed2c77648de5860a4cc508cd0818c85b8b8a1ab4ceeef8d981c8956a63361153b565b507f43c10e8157204c3078a70fbb151bf386ac91d0cbcf2b5d0a73ebc14ddc86538b33838360405161091a93929190613052565b60405180910390a15050565b5f60075f8381526020019081526020015f20600101549050919050565b61094c82610926565b610955816111cd565b61095f838361153b565b50505050565b61096d611317565b73ffffffffffffffffffffffffffffffffffffffff168173ffffffffffffffffffffffffffffffffffffffff16146109d1576040517f6697b23200000000000000000000000000000000000000000000000000000000815260040160405180910390fd5b6109db8282611625565b505050565b7f9f2df0fed2c77648de5860a4cc508cd0818c85b8b8a1ab4ceeef8d981c8956a6610a0a816111cd565b60095f3373ffffffffffffffffffffffffffffffffffffffff1673ffffffffffffffffffffffffffffffffffffffff1681526020019081526020015f206002015f9054906101000a900460ff16610a96576040517f08c379a0000000000000000000000000000000000000000000000000000000008152600401610a8d90612cd5565b60405180910390fd5b8260095f3373ffffffffffffffffffffffffffffffffffffffff1673ffffffffffffffffffffffffffffffffffffffff1681526020019081526020015f205f019081610ae29190612f83565b508160095f3373ffffffffffffffffffffffffffffffffffffffff1673ffffffffffffffffffffffffffffffffffffffff1681526020019081526020015f206001019081610b309190612f83565b507f43c10e8157204c3078a70fbb151bf386ac91d0cbcf2b5d0a73ebc14ddc86538b338484604051610b6493929190613052565b60405180910390a1505050565b610b8b83838360405180602001604052805f815250610f0b565b505050565b5f610b9a82611258565b9050919050565b6060805f8060095f8673ffffffffffffffffffffffffffffffffffffffff1673ffffffffffffffffffffffffffffffffffffffff1681526020019081526020015f206040518060600160405290815f82018054610bfd90612c5b565b80601f0160208091040260200160405190810160405280929190818152602001828054610c2990612c5b565b8015610c745780601f10610c4b57610100808354040283529160200191610c74565b820191905f5260205f20905b815481529060010190602001808311610c5757829003601f168201915b50505050508152602001600182018054610c8d90612c5b565b80601f0160208091040260200160405190810160405280929190818152602001828054610cb990612c5b565b8015610d045780601f10610cdb57610100808354040283529160200191610d04565b820191905f5260205f20905b815481529060010190602001808311610ce757829003601f168201915b50505050508152602001600282015f9054906101000a900460ff1615151515815250509050805f015181602001518260400151935093509350509193909250565b5f8073ffffffffffffffffffffffffffffffffffffffff168273ffffffffffffffffffffffffffffffffffffffff1603610db6575f6040517f89c62b64000000000000000000000000000000000000000000000000000000008152600401610dad919061281b565b60405180910390fd5b60035f8373ffffffffffffffffffffffffffffffffffffffff1673ffffffffffffffffffffffffffffffffffffffff1681526020019081526020015f20549050919050565b5f60075f8481526020019081526020015f205f015f8373ffffffffffffffffffffffffffffffffffffffff1673ffffffffffffffffffffffffffffffffffffffff1681526020019081526020015f205f9054906101000a900460ff16905092915050565b606060018054610e6e90612c5b565b80601f0160208091040260200160405190810160405280929190818152602001828054610e9a90612c5b565b8015610ee55780601f10610ebc57610100808354040283529160200191610ee5565b820191905f5260205f20905b815481529060010190602001808311610ec857829003601f168201915b5050505050905090565b5f801b81565b610f07610f00611317565b838361170f565b5050565b610f16848484610716565b610f2a610f21611317565b85858585611878565b50505050565b6060610f3b82611a24565b9050919050565b7f9f2df0fed2c77648de5860a4cc508cd0818c85b8b8a1ab4ceeef8d981c8956a681565b610f6f82610926565b610f78816111cd565b610f828383611625565b50505050565b6009602052805f5260405f205f91509050805f018054610fa790612c5b565b80601f0160208091040260200160405190810160405280929190818152602001828054610fd390612c5b565b801561101e5780601f10610ff55761010080835404028352916020019161101e565b820191905f5260205f20905b81548152906001019060200180831161100157829003601f168201915b50505050509080600101805461103390612c5b565b80601f016020809104026020016040519081016040528092919081815260200182805461105f90612c5b565b80156110aa5780601f10611081576101008083540402835291602001916110aa565b820191905f5260205f20905b81548152906001019060200180831161108d57829003601f168201915b505050505090806002015f9054906101000a900460ff16905083565b5f60055f8473ffffffffffffffffffffffffffffffffffffffff1673ffffffffffffffffffffffffffffffffffffffff1681526020019081526020015f205f8373ffffffffffffffffffffffffffffffffffffffff1673ffffffffffffffffffffffffffffffffffffffff1681526020019081526020015f205f9054906101000a900460ff16905092915050565b5f7f7965db0b000000000000000000000000000000000000000000000000000000007bffffffffffffffffffffffffffffffffffffffffffffffffffffffff1916827bffffffffffffffffffffffffffffffffffffffffffffffffffffffff191614806111c657506111c582611b2f565b5b9050919050565b6111de816111d9611317565b611b8f565b50565b6111fa828260405180602001604052805f815250611be0565b5050565b8060065f8481526020019081526020015f20908161121c9190612f83565b507ff8e1a15aba9398e019f0b49df1a4fde98ee17ae345cb5f6b5e2c27f5033e8ce78260405161124c919061279e565b60405180910390a15050565b5f8061126383611c03565b90505f73ffffffffffffffffffffffffffffffffffffffff168173ffffffffffffffffffffffffffffffffffffffff16036112d557826040517f7e2732890000000000000000000000000000000000000000000000000000000081526004016112cc919061279e565b60405180910390fd5b80915050919050565b5f60045f8381526020019081526020015f205f9054906101000a900473ffffffffffffffffffffffffffffffffffffffff169050919050565b5f33905090565b61132b8383836001611c3c565b505050565b5f8061133b84611c03565b90505f73ffffffffffffffffffffffffffffffffffffffff168373ffffffffffffffffffffffffffffffffffffffff161461137c5761137b818486611dfb565b5b5f73ffffffffffffffffffffffffffffffffffffffff168173ffffffffffffffffffffffffffffffffffffffff1614611407576113bb5f855f80611c3c565b600160035f8373ffffffffffffffffffffffffffffffffffffffff1673ffffffffffffffffffffffffffffffffffffffff1681526020019081526020015f205f82825403925050819055505b5f73ffffffffffffffffffffffffffffffffffffffff168573ffffffffffffffffffffffffffffffffffffffff161461148657600160035f8773ffffffffffffffffffffffffffffffffffffffff1673ffffffffffffffffffffffffffffffffffffffff1681526020019081526020015f205f82825401925050819055505b8460025f8681526020019081526020015f205f6101000a81548173ffffffffffffffffffffffffffffffffffffffff021916908373ffffffffffffffffffffffffffffffffffffffff160217905550838573ffffffffffffffffffffffffffffffffffffffff168273ffffffffffffffffffffffffffffffffffffffff167fddf252ad1be2c89b69c2b068fc378daa952ba7f163c4a11628f55a4df523b3ef60405160405180910390a4809150509392505050565b5f6115468383610dfb565b61161b57600160075f8581526020019081526020015f205f015f8473ffffffffffffffffffffffffffffffffffffffff1673ffffffffffffffffffffffffffffffffffffffff1681526020019081526020015f205f6101000a81548160ff0219169083151502179055506115b8611317565b73ffffffffffffffffffffffffffffffffffffffff168273ffffffffffffffffffffffffffffffffffffffff16847f2f8788117e7eff1d82e926ec794901d17c78024a50270940304540a733656f0d60405160405180910390a46001905061161f565b5f90505b92915050565b5f6116308383610dfb565b15611705575f60075f8581526020019081526020015f205f015f8473ffffffffffffffffffffffffffffffffffffffff1673ffffffffffffffffffffffffffffffffffffffff1681526020019081526020015f205f6101000a81548160ff0219169083151502179055506116a2611317565b73ffffffffffffffffffffffffffffffffffffffff168273ffffffffffffffffffffffffffffffffffffffff16847ff6391f5c32d9c69d2a47ea670b442974b53935d1edc7fd64eb21e047a839171b60405160405180910390a460019050611709565b5f90505b92915050565b5f73ffffffffffffffffffffffffffffffffffffffff168273ffffffffffffffffffffffffffffffffffffffff160361177f57816040517f5b08ba18000000000000000000000000000000000000000000000000000000008152600401611776919061281b565b60405180910390fd5b8060055f8573ffffffffffffffffffffffffffffffffffffffff1673ffffffffffffffffffffffffffffffffffffffff1681526020019081526020015f205f8473ffffffffffffffffffffffffffffffffffffffff1673ffffffffffffffffffffffffffffffffffffffff1681526020019081526020015f205f6101000a81548160ff0219169083151502179055508173ffffffffffffffffffffffffffffffffffffffff168373ffffffffffffffffffffffffffffffffffffffff167f17307eab39ab6107e8899845ad3d59bd9653f200f220920489ca2b5937696c318360405161186b91906124fd565b60405180910390a3505050565b5f8373ffffffffffffffffffffffffffffffffffffffff163b1115611a1d578273ffffffffffffffffffffffffffffffffffffffff1663150b7a02868685856040518563ffffffff1660e01b81526004016118d694939291906130e7565b6020604051808303815f875af192505050801561191157506040513d601f19601f8201168201806040525081019061190e9190613145565b60015b611992573d805f811461193f576040519150601f19603f3d011682016040523d82523d5f602084013e611944565b606091505b505f81510361198a57836040517f64a0ae92000000000000000000000000000000000000000000000000000000008152600401611981919061281b565b60405180910390fd5b805160208201fd5b63150b7a0260e01b7bffffffffffffffffffffffffffffffffffffffffffffffffffffffff1916817bffffffffffffffffffffffffffffffffffffffffffffffffffffffff191614611a1b57836040517f64a0ae92000000000000000000000000000000000000000000000000000000008152600401611a12919061281b565b60405180910390fd5b505b5050505050565b6060611a2f82611258565b505f60065f8481526020019081526020015f208054611a4d90612c5b565b80601f0160208091040260200160405190810160405280929190818152602001828054611a7990612c5b565b8015611ac45780601f10611a9b57610100808354040283529160200191611ac4565b820191905f5260205f20905b815481529060010190602001808311611aa757829003601f168201915b505050505090505f611ad4611ebe565b90505f815103611ae8578192505050611b2a565b5f82511115611b1c578082604051602001611b049291906131aa565b60405160208183030381529060405292505050611b2a565b611b2584611ed4565b925050505b919050565b5f634906490660e01b7bffffffffffffffffffffffffffffffffffffffffffffffffffffffff1916827bffffffffffffffffffffffffffffffffffffffffffffffffffffffff19161480611b885750611b8782611f3a565b5b9050919050565b611b998282610dfb565b611bdc5780826040517fe2517d3f000000000000000000000000000000000000000000000000000000008152600401611bd39291906131cd565b60405180910390fd5b5050565b611bea838361201b565b611bfe611bf5611317565b5f858585611878565b505050565b5f60025f8381526020019081526020015f205f9054906101000a900473ffffffffffffffffffffffffffffffffffffffff169050919050565b8080611c7457505f73ffffffffffffffffffffffffffffffffffffffff168273ffffffffffffffffffffffffffffffffffffffff1614155b15611da6575f611c8384611258565b90505f73ffffffffffffffffffffffffffffffffffffffff168373ffffffffffffffffffffffffffffffffffffffff1614158015611ced57508273ffffffffffffffffffffffffffffffffffffffff168173ffffffffffffffffffffffffffffffffffffffff1614155b8015611d005750611cfe81846110c6565b155b15611d4257826040517fa9fbf51f000000000000000000000000000000000000000000000000000000008152600401611d39919061281b565b60405180910390fd5b8115611da457838573ffffffffffffffffffffffffffffffffffffffff168273ffffffffffffffffffffffffffffffffffffffff167f8c5be1e5ebec7d5bd14f71427d1e84f3dd0314c0f7b2291e5b200ac8c7c3b92560405160405180910390a45b505b8360045f8581526020019081526020015f205f6101000a81548173ffffffffffffffffffffffffffffffffffffffff021916908373ffffffffffffffffffffffffffffffffffffffff16021790555050505050565b611e0683838361210e565b611eb9575f73ffffffffffffffffffffffffffffffffffffffff168373ffffffffffffffffffffffffffffffffffffffff1603611e7a57806040517f7e273289000000000000000000000000000000000000000000000000000000008152600401611e71919061279e565b60405180910390fd5b81816040517f177e802f000000000000000000000000000000000000000000000000000000008152600401611eb09291906131f4565b60405180910390fd5b505050565b606060405180602001604052805f815250905090565b6060611edf82611258565b505f611ee9611ebe565b90505f815111611f075760405180602001604052805f815250611f32565b80611f11846121ce565b604051602001611f229291906131aa565b6040516020818303038152906040525b915050919050565b5f7f80ac58cd000000000000000000000000000000000000000000000000000000007bffffffffffffffffffffffffffffffffffffffffffffffffffffffff1916827bffffffffffffffffffffffffffffffffffffffffffffffffffffffff1916148061200457507f5b5e139f000000000000000000000000000000000000000000000000000000007bffffffffffffffffffffffffffffffffffffffffffffffffffffffff1916827bffffffffffffffffffffffffffffffffffffffffffffffffffffffff1916145b80612014575061201382612298565b5b9050919050565b5f73ffffffffffffffffffffffffffffffffffffffff168273ffffffffffffffffffffffffffffffffffffffff160361208b575f6040517f64a0ae92000000000000000000000000000000000000000000000000000000008152600401612082919061281b565b60405180910390fd5b5f61209783835f611330565b90505f73ffffffffffffffffffffffffffffffffffffffff168173ffffffffffffffffffffffffffffffffffffffff1614612109575f6040517f73c6ac6e000000000000000000000000000000000000000000000000000000008152600401612100919061281b565b60405180910390fd5b505050565b5f8073ffffffffffffffffffffffffffffffffffffffff168373ffffffffffffffffffffffffffffffffffffffff16141580156121c557508273ffffffffffffffffffffffffffffffffffffffff168473ffffffffffffffffffffffffffffffffffffffff161480612186575061218584846110c6565b5b806121c457508273ffffffffffffffffffffffffffffffffffffffff166121ac836112de565b73ffffffffffffffffffffffffffffffffffffffff16145b5b90509392505050565b60605f60016121dc84612301565b0190505f8167ffffffffffffffff8111156121fa576121f9612608565b5b6040519080825280601f01601f19166020018201604052801561222c5781602001600182028036833780820191505090505b5090505f82602083010190505b60011561228d578080600190039150507f3031323334353637383961626364656600000000000000000000000000000000600a86061a8153600a85816122825761228161321b565b5b0494505f8503612239575b819350505050919050565b5f7f01ffc9a7000000000000000000000000000000000000000000000000000000007bffffffffffffffffffffffffffffffffffffffffffffffffffffffff1916827bffffffffffffffffffffffffffffffffffffffffffffffffffffffff1916149050919050565b5f805f90507a184f03e93ff9f4daa797ed6e38ed64bf6a1f010000000000000000831061235d577a184f03e93ff9f4daa797ed6e38ed64bf6a1f01000000000000000083816123535761235261321b565b5b0492506040810190505b6d04ee2d6d415b85acef8100000000831061239a576d04ee2d6d415b85acef810000000083816123905761238f61321b565b5b0492506020810190505b662386f26fc1000083106123c957662386f26fc1000083816123bf576123be61321b565b5b0492506010810190505b6305f5e10083106123f2576305f5e10083816123e8576123e761321b565b5b0492506008810190505b612710831061241757612710838161240d5761240c61321b565b5b0492506004810190505b6064831061243a57606483816124305761242f61321b565b5b0492506002810190505b600a8310612449576001810190505b80915050919050565b5f604051905090565b5f80fd5b5f80fd5b5f7fffffffff0000000000000000000000000000000000000000000000000000000082169050919050565b61249781612463565b81146124a1575f80fd5b50565b5f813590506124b28161248e565b92915050565b5f602082840312156124cd576124cc61245b565b5b5f6124da848285016124a4565b91505092915050565b5f8115159050919050565b6124f7816124e3565b82525050565b5f6020820190506125105f8301846124ee565b92915050565b5f81519050919050565b5f82825260208201905092915050565b8281835e5f83830152505050565b5f601f19601f8301169050919050565b5f61255882612516565b6125628185612520565b9350612572818560208601612530565b61257b8161253e565b840191505092915050565b5f6020820190508181035f83015261259e818461254e565b905092915050565b5f73ffffffffffffffffffffffffffffffffffffffff82169050919050565b5f6125cf826125a6565b9050919050565b6125df816125c5565b81146125e9575f80fd5b50565b5f813590506125fa816125d6565b92915050565b5f80fd5b5f80fd5b7f4e487b71000000000000000000000000000000000000000000000000000000005f52604160045260245ffd5b61263e8261253e565b810181811067ffffffffffffffff8211171561265d5761265c612608565b5b80604052505050565b5f61266f612452565b905061267b8282612635565b919050565b5f67ffffffffffffffff82111561269a57612699612608565b5b6126a38261253e565b9050602081019050919050565b828183375f83830152505050565b5f6126d06126cb84612680565b612666565b9050828152602081018484840111156126ec576126eb612604565b5b6126f78482856126b0565b509392505050565b5f82601f83011261271357612712612600565b5b81356127238482602086016126be565b91505092915050565b5f80604083850312156127425761274161245b565b5b5f61274f858286016125ec565b925050602083013567ffffffffffffffff8111156127705761276f61245f565b5b61277c858286016126ff565b9150509250929050565b5f819050919050565b61279881612786565b82525050565b5f6020820190506127b15f83018461278f565b92915050565b6127c081612786565b81146127ca575f80fd5b50565b5f813590506127db816127b7565b92915050565b5f602082840312156127f6576127f561245b565b5b5f612803848285016127cd565b91505092915050565b612815816125c5565b82525050565b5f60208201905061282e5f83018461280c565b92915050565b5f806040838503121561284a5761284961245b565b5b5f612857858286016125ec565b9250506020612868858286016127cd565b9150509250929050565b5f805f606084860312156128895761288861245b565b5b5f612896868287016125ec565b93505060206128a7868287016125ec565b92505060406128b8868287016127cd565b9150509250925092565b5f80604083850312156128d8576128d761245b565b5b5f83013567ffffffffffffffff8111156128f5576128f461245f565b5b612901858286016126ff565b925050602083013567ffffffffffffffff8111156129225761292161245f565b5b61292e858286016126ff565b9150509250929050565b5f819050919050565b61294a81612938565b8114612954575f80fd5b50565b5f8135905061296581612941565b92915050565b5f602082840312156129805761297f61245b565b5b5f61298d84828501612957565b91505092915050565b61299f81612938565b82525050565b5f6020820190506129b85f830184612996565b92915050565b5f80604083850312156129d4576129d361245b565b5b5f6129e185828601612957565b92505060206129f2858286016125ec565b9150509250929050565b5f60208284031215612a1157612a1061245b565b5b5f612a1e848285016125ec565b91505092915050565b5f6060820190508181035f830152612a3f818661254e565b90508181036020830152612a53818561254e565b9050612a6260408301846124ee565b949350505050565b612a73816124e3565b8114612a7d575f80fd5b50565b5f81359050612a8e81612a6a565b92915050565b5f8060408385031215612aaa57612aa961245b565b5b5f612ab7858286016125ec565b9250506020612ac885828601612a80565b9150509250929050565b5f67ffffffffffffffff821115612aec57612aeb612608565b5b612af58261253e565b9050602081019050919050565b5f612b14612b0f84612ad2565b612666565b905082815260208101848484011115612b3057612b2f612604565b5b612b3b8482856126b0565b509392505050565b5f82601f830112612b5757612b56612600565b5b8135612b67848260208601612b02565b91505092915050565b5f805f8060808587031215612b8857612b8761245b565b5b5f612b95878288016125ec565b9450506020612ba6878288016125ec565b9350506040612bb7878288016127cd565b925050606085013567ffffffffffffffff811115612bd857612bd761245f565b5b612be487828801612b43565b91505092959194509250565b5f8060408385031215612c0657612c0561245b565b5b5f612c13858286016125ec565b9250506020612c24858286016125ec565b9150509250929050565b7f4e487b71000000000000000000000000000000000000000000000000000000005f52602260045260245ffd5b5f6002820490506001821680612c7257607f821691505b602082108103612c8557612c84612c2e565b5b50919050565b7f4f7267616e697a6174696f6e206e6f74207265676973746572656400000000005f82015250565b5f612cbf601b83612520565b9150612cca82612c8b565b602082019050919050565b5f6020820190508181035f830152612cec81612cb3565b9050919050565b7f4e487b71000000000000000000000000000000000000000000000000000000005f52601160045260245ffd5b5f612d2a82612786565b91507fffffffffffffffffffffffffffffffffffffffffffffffffffffffffffffffff8203612d5c57612d5b612cf3565b5b600182019050919050565b5f608082019050612d7a5f83018761280c565b612d87602083018661280c565b612d94604083018561278f565b8181036060830152612da6818461254e565b905095945050505050565b5f606082019050612dc45f83018661280c565b612dd1602083018561278f565b612dde604083018461280c565b949350505050565b5f819050815f5260205f209050919050565b5f6020601f8301049050919050565b5f82821b905092915050565b5f60088302612e427fffffffffffffffffffffffffffffffffffffffffffffffffffffffffffffffff82612e07565b612e4c8683612e07565b95508019841693508086168417925050509392505050565b5f819050919050565b5f612e87612e82612e7d84612786565b612e64565b612786565b9050919050565b5f819050919050565b612ea083612e6d565b612eb4612eac82612e8e565b848454612e13565b825550505050565b5f90565b612ec8612ebc565b612ed3818484612e97565b505050565b5b81811015612ef657612eeb5f82612ec0565b600181019050612ed9565b5050565b601f821115612f3b57612f0c81612de6565b612f1584612df8565b81016020851015612f24578190505b612f38612f3085612df8565b830182612ed8565b50505b505050565b5f82821c905092915050565b5f612f5b5f1984600802612f40565b1980831691505092915050565b5f612f738383612f4c565b9150826002028217905092915050565b612f8c82612516565b67ffffffffffffffff811115612fa557612fa4612608565b5b612faf8254612c5b565b612fba828285612efa565b5f60209050601f831160018114612feb575f8415612fd9578287015190505b612fe38582612f68565b86555061304a565b601f198416612ff986612de6565b5f5b8281101561302057848901518255600182019150602085019450602081019050612ffb565b8683101561303d5784890151613039601f891682612f4c565b8355505b6001600288020188555050505b505050505050565b5f6060820190506130655f83018661280c565b8181036020830152613077818561254e565b9050818103604083015261308b818461254e565b9050949350505050565b5f81519050919050565b5f82825260208201905092915050565b5f6130b982613095565b6130c3818561309f565b93506130d3818560208601612530565b6130dc8161253e565b840191505092915050565b5f6080820190506130fa5f83018761280c565b613107602083018661280c565b613114604083018561278f565b818103606083015261312681846130af565b905095945050505050565b5f8151905061313f8161248e565b92915050565b5f6020828403121561315a5761315961245b565b5b5f61316784828501613131565b91505092915050565b5f81905092915050565b5f61318482612516565b61318e8185613170565b935061319e818560208601612530565b80840191505092915050565b5f6131b5828561317a565b91506131c1828461317a565b91508190509392505050565b5f6040820190506131e05f83018561280c565b6131ed6020830184612996565b9392505050565b5f6040820190506132075f83018561280c565b613214602083018461278f565b9392505050565b7f4e487b71000000000000000000000000000000000000000000000000000000005f52601260045260245ffdfea26469706673582212207977fc834f0edde303f9bddeb267e8043218a2826400a1a1cdc18aa2f9cdd8cd64736f6c634300081a0033","linkReferences":{}},"methodIdentifiers":{"DEFAULT_ADMIN_ROLE()":"a217fddf","MINTER_ROLE()":"d5391393","approve(address,uint256)":"095ea7b3","balanceOf(address)":"70a08231","getApproved(uint256)":"081812fc","getOrganizationBranding(address)":"68304b37","getRoleAdmin(bytes32)":"248a9ca3","grantRole(bytes32,address)":"2f2ff15d","hasRole(bytes32,address)":"91d14854","isApprovedForAll(address,address)":"e985e9c5","mintCertificate(address,string)":"0712249f","name()":"06fdde03","organizationBranding(address)":"d896b430","ownerOf(uint256)":"6352211e","registerOrganization(string,string)":"247a50d8","renounceRole(bytes32,address)":"36568abe","revokeRole(bytes32,address)":"d547741f","safeTransferFrom(address,address,uint256)":"42842e0e","safeTransferFrom(address,address,uint256,bytes)":"b88d4fde","setApprovalForAll(address,bool)":"a22cb465","supportsInterface(bytes4)":"01ffc9a7","symbol()":"95d89b41","tokenURI(uint256)":"c87b56dd","transferFrom(address,address,uint256)":"23b872dd","updateOrganizationBranding(string,string)":"3ef9e6bb"},"id":45}