{"abi":[{"type":"constructor","inputs":[],"stateMutability":"nonpayable"},{"type":"function","name":"ADMIN_ROLE","inputs":[],"outputs":[{"name":"","type":"bytes32","internalType":"bytes32"}],"stateMutability":"view"},{"type":"function","name":"DEFAULT_ADMIN_ROLE","inputs":[],"outputs":[{"name":"","type":"bytes32","internalType":"bytes32"}],"stateMutability":"view"},{"type":"function","name":"ISSUER_ROLE","inputs":[],"outputs":[{"name":"","type":"bytes32","internalType":"bytes32"}],"stateMutability":"view"},{"type":"function","name":"addIssuer","inputs":[{"name":"_issuer","type":"address","internalType":"address"}],"outputs":[],"stateMutability":"nonpayable"},{"type":"function","name":"certificates","inputs":[{"name":"","type":"uint256","internalType":"uint256"}],"outputs":[{"name":"id","type":"uint256","internalType":"uint256"},{"name":"recipientName","type":"string","internalType":"string"},{"name":"issueDate","type":"uint256","internalType":"uint256"},{"name":"isValid","type":"bool","internalType":"bool"},{"name":"owner","type":"address","internalType":"address"}],"stateMutability":"view"},{"type":"function","name":"getRoleAdmin","inputs":[{"name":"role","type":"bytes32","internalType":"bytes32"}],"outputs":[{"name":"","type":"bytes32","internalType":"bytes32"}],"stateMutability":"view"},{"type":"function","name":"grantRole","inputs":[{"name":"role","type":"bytes32","internalType":"bytes32"},{"name":"account","type":"address","internalType":"address"}],"outputs":[],"stateMutability":"nonpayable"},{"type":"function","name":"hasRole","inputs":[{"name":"role","type":"bytes32","internalType":"bytes32"},{"name":"account","type":"address","internalType":"address"}],"outputs":[{"name":"","type":"bool","internalType":"bool"}],"stateMutability":"view"},{"type":"function","name":"issueCertificate","inputs":[{"name":"_recipientName","type":"string","internalType":"string"},{"name":"_owner","type":"address","internalType":"address"}],"outputs":[],"stateMutability":"nonpayable"},{"type":"function","name":"removeIssuer","inputs":[{"name":"_issuer","type":"address","internalType":"address"}],"outputs":[],"stateMutability":"nonpayable"},{"type":"function","name":"renounceRole","inputs":[{"name":"role","type":"bytes32","internalType":"bytes32"},{"name":"callerConfirmation","type":"address","internalType":"address"}],"outputs":[],"stateMutability":"nonpayable"},{"type":"function","name":"revokeCertificate","inputs":[{"name":"_certificateId","type":"uint256","internalType":"uint256"}],"outputs":[],"stateMutability":"nonpayable"},{"type":"function","name":"revokeRole","inputs":[{"name":"role","type":"bytes32","internalType":"bytes32"},{"name":"account","type":"address","internalType":"address"}],"outputs":[],"stateMutability":"nonpayable"},{"type":"function","name":"supportsInterface","inputs":[{"name":"interfaceId","type":"bytes4","internalType":"bytes4"}],"outputs":[{"name":"","type":"bool","internalType":"bool"}],"stateMutability":"view"},{"type":"function","name":"transferCertificate","inputs":[{"name":"_certificateId","type":"uint256","internalType":"uint256"},{"name":"_to","type":"address","internalType":"address"}],"outputs":[],"stateMutability":"nonpayable"},{"type":"function","name":"verifyCertificate","inputs":[{"name":"_certificateId","type":"uint256","internalType":"uint256"}],"outputs":[{"name":"","type":"bool","internalType":"bool"}],"stateMutability":"view"},{"type":"event","name":"CertificateIssued","inputs":[{"name":"id","type":"uint256","indexed":true,"internalType":"uint256"},{"name":"recipientName","type":"string","indexed":false,"internalType":"string"},{"name":"issueDate","type":"uint256","indexed":false,"internalType":"uint256"},{"name":"owner","type":"address","indexed":false,"internalType":"address"}],"anonymous":false},{"type":"event","name":"CertificateRevoked","inputs":[{"name":"id","type":"uint256","indexed":true,"internalType":"uint256"}],"anonymous":false},{"type":"event","name":"CertificateTransferred","inputs":[{"name":"id","type":"uint256","indexed":true,"internalType":"uint256"},{"name":"from","type":"address","indexed":true,"internalType":"address"},{"name":"to","type":"address","indexed":true,"internalType":"address"}],"anonymous":false},{"type":"event","name":"RoleAdminChanged","inputs":[{"name":"role","type":"bytes32","indexed":true,"internalType":"bytes32"},{"name":"previousAdminRole","type":"bytes32","indexed":true,"internalType":"bytes32"},{"name":"newAdminRole","type":"bytes32","indexed":true,"internalType":"bytes32"}],"anonymous":false},{"type":"event","name":"RoleGranted","inputs":[{"name":"role","type":"bytes32","indexed":true,"internalType":"bytes32"},{"name":"account","type":"address","indexed":true,"internalType":"address"},{"name":"sender","type":"address","indexed":true,"internalType":"address"}],"anonymous":false},{"type":"event","name":"RoleRevoked","inputs":[{"name":"role","type":"bytes32","indexed":true,"internalType":"bytes32"},{"name":"account","type":"address","indexed":true,"internalType":"address"},{"name":"sender","type":"address","indexed":true,"internalType":"address"}],"anonymous":false},{"type":"error","name":"AccessControlBadConfirmation","inputs":[]},{"type":"error","name":"AccessControlUnauthorizedAccount","inputs":[{"name":"account","type":"address","internalType":"address"},{"name":"neededRole","type":"bytes32","internalType":"bytes32"}]},{"type":"error","name":"ReentrancyGuardReentrantCall","inputs":[]}],"bytecode":{"object":"0x608060405234801561000f575f5ffd5b5060018081905550600160028190555061004f7fa49807205ce4d355092ef5a8a18f56e8913cf4a201fbe287825b095693c217753361008660201b60201c565b506100807f114e74f6ea3bd819998f78687bfcb11b140da08e9b7d222fa9c1f1ba1f2aa1223361008660201b60201c565b506101e5565b5f610097838361017b60201b60201c565b6101715760015f5f8581526020019081526020015f205f015f8473ffffffffffffffffffffffffffffffffffffffff1673ffffffffffffffffffffffffffffffffffffffff1681526020019081526020015f205f6101000a81548160ff02191690831515021790555061010e6101de60201b60201c565b73ffffffffffffffffffffffffffffffffffffffff168273ffffffffffffffffffffffffffffffffffffffff16847f2f8788117e7eff1d82e926ec794901d17c78024a50270940304540a733656f0d60405160405180910390a460019050610175565b5f90505b92915050565b5f5f5f8481526020019081526020015f205f015f8373ffffffffffffffffffffffffffffffffffffffff1673ffffffffffffffffffffffffffffffffffffffff1681526020019081526020015f205f9054906101000a900460ff16905092915050565b5f33905090565b611a3c806101f25f395ff3fe608060405234801561000f575f5ffd5b50600436106100fe575f3560e01c8063663b3e221161009557806391d148541161006457806391d14854146102aa578063a217fddf146102da578063cf3ae934146102f8578063d547741f14610314576100fe565b8063663b3e221461021e57806367d4ddf61461025257806375b238fc1461026e57806382aefa241461028c576100fe565b8063248a9ca3116100d1578063248a9ca31461019a5780632f2ff15d146101ca57806336568abe146101e657806347bc709314610202576100fe565b806301ffc9a71461010257806306f5497e146101325780631692a9421461014e57806320694db01461017e575b5f5ffd5b61011c60048036038101906101179190610fac565b610330565b6040516101299190610ff1565b60405180910390f35b61014c6004803603810190610147919061103d565b6103a9565b005b6101686004803603810190610163919061103d565b610494565b6040516101759190610ff1565b60405180910390f35b610198600480360381019061019391906110c2565b610512565b005b6101b460048036038101906101af9190611120565b61057a565b6040516101c1919061115a565b60405180910390f35b6101e460048036038101906101df9190611173565b610596565b005b61020060048036038101906101fb9190611173565b6105b8565b005b61021c600480360381019061021791906110c2565b610633565b005b6102386004803603810190610233919061103d565b61069b565b60405161024995949392919061123f565b60405180910390f35b61026c600480360381019061026791906113c3565b61077f565b005b6102766108f6565b604051610283919061115a565b60405180910390f35b61029461091a565b6040516102a1919061115a565b60405180910390f35b6102c460048036038101906102bf9190611173565b61093e565b6040516102d19190610ff1565b60405180910390f35b6102e26109a1565b6040516102ef919061115a565b60405180910390f35b610312600480360381019061030d919061141d565b6109a7565b005b61032e60048036038101906103299190611173565b610c2e565b005b5f7f7965db0b000000000000000000000000000000000000000000000000000000007bffffffffffffffffffffffffffffffffffffffffffffffffffffffff1916827bffffffffffffffffffffffffffffffffffffffffffffffffffffffff191614806103a257506103a182610c50565b5b9050919050565b7f114e74f6ea3bd819998f78687bfcb11b140da08e9b7d222fa9c1f1ba1f2aa1226103d381610cb9565b6103db610ccd565b5f60035f8481526020019081526020015f205f015403610430576040517f08c379a0000000000000000000000000000000000000000000000000000000008152600401610427906114a5565b60405180910390fd5b5f60035f8481526020019081526020015f206003015f6101000a81548160ff021916908315150217905550817fefa6c5f47ac2523bb4db18032377bf7fdce0fa9d86eddcae1ca9bba38be615d760405160405180910390a2610490610d13565b5050565b5f5f60035f8481526020019081526020015f205f0154036104ea576040517f08c379a00000000000000000000000000000000000000000000000000000000081526004016104e1906114a5565b60405180910390fd5b60035f8381526020019081526020015f206003015f9054906101000a900460ff169050919050565b7fa49807205ce4d355092ef5a8a18f56e8913cf4a201fbe287825b095693c2177561053c81610cb9565b610544610ccd565b61056e7f114e74f6ea3bd819998f78687bfcb11b140da08e9b7d222fa9c1f1ba1f2aa12283610596565b610576610d13565b5050565b5f5f5f8381526020019081526020015f20600101549050919050565b61059f8261057a565b6105a881610cb9565b6105b28383610d1c565b50505050565b6105c0610e05565b73ffffffffffffffffffffffffffffffffffffffff168173ffffffffffffffffffffffffffffffffffffffff1614610624576040517f6697b23200000000000000000000000000000000000000000000000000000000815260040160405180910390fd5b61062e8282610e0c565b505050565b7fa49807205ce4d355092ef5a8a18f56e8913cf4a201fbe287825b095693c2177561065d81610cb9565b610665610ccd565b61068f7f114e74f6ea3bd819998f78687bfcb11b140da08e9b7d222fa9c1f1ba1f2aa12283610c2e565b610697610d13565b5050565b6003602052805f5260405f205f91509050805f0154908060010180546106c0906114f0565b80601f01602080910402602001604051908101604052809291908181526020018280546106ec906114f0565b80156107375780601f1061070e57610100808354040283529160200191610737565b820191905f5260205f20905b81548152906001019060200180831161071a57829003601f168201915b505050505090806002015490806003015f9054906101000a900460ff16908060030160019054906101000a900473ffffffffffffffffffffffffffffffffffffffff16905085565b7f114e74f6ea3bd819998f78687bfcb11b140da08e9b7d222fa9c1f1ba1f2aa1226107a981610cb9565b6107b1610ccd565b5f60025f8154809291906107c49061154d565b9190505590506040518060a001604052808281526020018581526020014281526020016001151581526020018473ffffffffffffffffffffffffffffffffffffffff1681525060035f8381526020019081526020015f205f820151815f015560208201518160010190816108389190611734565b50604082015181600201556060820151816003015f6101000a81548160ff02191690831515021790555060808201518160030160016101000a81548173ffffffffffffffffffffffffffffffffffffffff021916908373ffffffffffffffffffffffffffffffffffffffff160217905550905050807f1158b0bef220ad606e4fd29f4a34232daae3afffa8f5ca22f4f204ea12abc1e58542866040516108e093929190611803565b60405180910390a2506108f1610d13565b505050565b7fa49807205ce4d355092ef5a8a18f56e8913cf4a201fbe287825b095693c2177581565b7f114e74f6ea3bd819998f78687bfcb11b140da08e9b7d222fa9c1f1ba1f2aa12281565b5f5f5f8481526020019081526020015f205f015f8373ffffffffffffffffffffffffffffffffffffffff1673ffffffffffffffffffffffffffffffffffffffff1681526020019081526020015f205f9054906101000a900460ff16905092915050565b5f5f1b81565b6109af610ccd565b5f60035f8481526020019081526020015f205f015403610a04576040517f08c379a00000000000000000000000000000000000000000000000000000000081526004016109fb90611889565b60405180910390fd5b60035f8381526020019081526020015f206003015f9054906101000a900460ff16610a64576040517f08c379a0000000000000000000000000000000000000000000000000000000008152600401610a5b906118f1565b60405180910390fd5b5f73ffffffffffffffffffffffffffffffffffffffff168173ffffffffffffffffffffffffffffffffffffffff1603610ad2576040517f08c379a0000000000000000000000000000000000000000000000000000000008152600401610ac990611959565b60405180910390fd5b3373ffffffffffffffffffffffffffffffffffffffff1660035f8481526020019081526020015f2060030160019054906101000a900473ffffffffffffffffffffffffffffffffffffffff1673ffffffffffffffffffffffffffffffffffffffff1614610b74576040517f08c379a0000000000000000000000000000000000000000000000000000000008152600401610b6b906119c1565b60405180910390fd5b8060035f8481526020019081526020015f2060030160016101000a81548173ffffffffffffffffffffffffffffffffffffffff021916908373ffffffffffffffffffffffffffffffffffffffff1602179055508073ffffffffffffffffffffffffffffffffffffffff163373ffffffffffffffffffffffffffffffffffffffff16837fd84c3130800c565a28647462f31ae56192e38229e38ffefbea7cda3be2968bdf60405160405180910390a4610c2a610d13565b5050565b610c378261057a565b610c4081610cb9565b610c4a8383610e0c565b50505050565b5f7f01ffc9a7000000000000000000000000000000000000000000000000000000007bffffffffffffffffffffffffffffffffffffffffffffffffffffffff1916827bffffffffffffffffffffffffffffffffffffffffffffffffffffffff1916149050919050565b610cca81610cc5610e05565b610ef5565b50565b600260015403610d09576040517f3ee5aeb500000000000000000000000000000000000000000000000000000000815260040160405180910390fd5b6002600181905550565b60018081905550565b5f610d27838361093e565b610dfb5760015f5f8581526020019081526020015f205f015f8473ffffffffffffffffffffffffffffffffffffffff1673ffffffffffffffffffffffffffffffffffffffff1681526020019081526020015f205f6101000a81548160ff021916908315150217905550610d98610e05565b73ffffffffffffffffffffffffffffffffffffffff168273ffffffffffffffffffffffffffffffffffffffff16847f2f8788117e7eff1d82e926ec794901d17c78024a50270940304540a733656f0d60405160405180910390a460019050610dff565b5f90505b92915050565b5f33905090565b5f610e17838361093e565b15610eeb575f5f5f8581526020019081526020015f205f015f8473ffffffffffffffffffffffffffffffffffffffff1673ffffffffffffffffffffffffffffffffffffffff1681526020019081526020015f205f6101000a81548160ff021916908315150217905550610e88610e05565b73ffffffffffffffffffffffffffffffffffffffff168273ffffffffffffffffffffffffffffffffffffffff16847ff6391f5c32d9c69d2a47ea670b442974b53935d1edc7fd64eb21e047a839171b60405160405180910390a460019050610eef565b5f90505b92915050565b610eff828261093e565b610f425780826040517fe2517d3f000000000000000000000000000000000000000000000000000000008152600401610f399291906119df565b60405180910390fd5b5050565b5f604051905090565b5f5ffd5b5f5ffd5b5f7fffffffff0000000000000000000000000000000000000000000000000000000082169050919050565b610f8b81610f57565b8114610f95575f5ffd5b50565b5f81359050610fa681610f82565b92915050565b5f60208284031215610fc157610fc0610f4f565b5b5f610fce84828501610f98565b91505092915050565b5f8115159050919050565b610feb81610fd7565b82525050565b5f6020820190506110045f830184610fe2565b92915050565b5f819050919050565b61101c8161100a565b8114611026575f5ffd5b50565b5f8135905061103781611013565b92915050565b5f6020828403121561105257611051610f4f565b5b5f61105f84828501611029565b91505092915050565b5f73ffffffffffffffffffffffffffffffffffffffff82169050919050565b5f61109182611068565b9050919050565b6110a181611087565b81146110ab575f5ffd5b50565b5f813590506110bc81611098565b92915050565b5f602082840312156110d7576110d6610f4f565b5b5f6110e4848285016110ae565b91505092915050565b5f819050919050565b6110ff816110ed565b8114611109575f5ffd5b50565b5f8135905061111a816110f6565b92915050565b5f6020828403121561113557611134610f4f565b5b5f6111428482850161110c565b91505092915050565b611154816110ed565b82525050565b5f60208201905061116d5f83018461114b565b92915050565b5f5f6040838503121561118957611188610f4f565b5b5f6111968582860161110c565b92505060206111a7858286016110ae565b9150509250929050565b6111ba8161100a565b82525050565b5f81519050919050565b5f82825260208201905092915050565b8281835e5f83830152505050565b5f601f19601f8301169050919050565b5f611202826111c0565b61120c81856111ca565b935061121c8185602086016111da565b611225816111e8565b840191505092915050565b61123981611087565b82525050565b5f60a0820190506112525f8301886111b1565b818103602083015261126481876111f8565b905061127360408301866111b1565b6112806060830185610fe2565b61128d6080830184611230565b9695505050505050565b5f5ffd5b5f5ffd5b7f4e487b71000000000000000000000000000000000000000000000000000000005f52604160045260245ffd5b6112d5826111e8565b810181811067ffffffffffffffff821117156112f4576112f361129f565b5b80604052505050565b5f611306610f46565b905061131282826112cc565b919050565b5f67ffffffffffffffff8211156113315761133061129f565b5b61133a826111e8565b9050602081019050919050565b828183375f83830152505050565b5f61136761136284611317565b6112fd565b9050828152602081018484840111156113835761138261129b565b5b61138e848285611347565b509392505050565b5f82601f8301126113aa576113a9611297565b5b81356113ba848260208601611355565b91505092915050565b5f5f604083850312156113d9576113d8610f4f565b5b5f83013567ffffffffffffffff8111156113f6576113f5610f53565b5b61140285828601611396565b9250506020611413858286016110ae565b9150509250929050565b5f5f6040838503121561143357611432610f4f565b5b5f61144085828601611029565b9250506020611451858286016110ae565b9150509250929050565b7f436572746966696361746520646f6573206e6f742065786973742e00000000005f82015250565b5f61148f601b836111ca565b915061149a8261145b565b602082019050919050565b5f6020820190508181035f8301526114bc81611483565b9050919050565b7f4e487b71000000000000000000000000000000000000000000000000000000005f52602260045260245ffd5b5f600282049050600182168061150757607f821691505b60208210810361151a576115196114c3565b5b50919050565b7f4e487b71000000000000000000000000000000000000000000000000000000005f52601160045260245ffd5b5f6115578261100a565b91507fffffffffffffffffffffffffffffffffffffffffffffffffffffffffffffffff820361158957611588611520565b5b600182019050919050565b5f819050815f5260205f209050919050565b5f6020601f8301049050919050565b5f82821b905092915050565b5f600883026115f07fffffffffffffffffffffffffffffffffffffffffffffffffffffffffffffffff826115b5565b6115fa86836115b5565b95508019841693508086168417925050509392505050565b5f819050919050565b5f61163561163061162b8461100a565b611612565b61100a565b9050919050565b5f819050919050565b61164e8361161b565b61166261165a8261163c565b8484546115c1565b825550505050565b5f5f905090565b61167961166a565b611684818484611645565b505050565b5b818110156116a75761169c5f82611671565b60018101905061168a565b5050565b601f8211156116ec576116bd81611594565b6116c6846115a6565b810160208510156116d5578190505b6116e96116e1856115a6565b830182611689565b50505b505050565b5f82821c905092915050565b5f61170c5f19846008026116f1565b1980831691505092915050565b5f61172483836116fd565b9150826002028217905092915050565b61173d826111c0565b67ffffffffffffffff8111156117565761175561129f565b5b61176082546114f0565b61176b8282856116ab565b5f60209050601f83116001811461179c575f841561178a578287015190505b6117948582611719565b8655506117fb565b601f1984166117aa86611594565b5f5b828110156117d1578489015182556001820191506020850194506020810190506117ac565b868310156117ee57848901516117ea601f8916826116fd565b8355505b6001600288020188555050505b505050505050565b5f6060820190508181035f83015261181b81866111f8565b905061182a60208301856111b1565b6118376040830184611230565b949350505050565b7f436572746966696361746520646f6573206e6f742065786973740000000000005f82015250565b5f611873601a836111ca565b915061187e8261183f565b602082019050919050565b5f6020820190508181035f8301526118a081611867565b9050919050565b7f4365727469666963617465206973206e6f742076616c696400000000000000005f82015250565b5f6118db6018836111ca565b91506118e6826118a7565b602082019050919050565b5f6020820190508181035f830152611908816118cf565b9050919050565b7f496e76616c696420726563697069656e742061646472657373000000000000005f82015250565b5f6119436019836111ca565b915061194e8261190f565b602082019050919050565b5f6020820190508181035f83015261197081611937565b9050919050565b7f4e6f7420746865206365727469666963617465206f776e6572000000000000005f82015250565b5f6119ab6019836111ca565b91506119b682611977565b602082019050919050565b5f6020820190508181035f8301526119d88161199f565b9050919050565b5f6040820190506119f25f830185611230565b6119ff602083018461114b565b939250505056fea26469706673582212207d5496a7d445daec6f53bc8b81d1f1532e6b89a4f5dee76ba2e9d55a53fc2db364736f6c634300081e0033","linkReferences":{}},"methodIdentifiers":{"ADMIN_ROLE()":"75b238fc","DEFAULT_ADMIN_ROLE()":"a217fddf","ISSUER_ROLE()":"82aefa24","addIssuer(address)":"20694db0","certificates(uint256)":"663b3e22","getRoleAdmin(bytes32)":"248a9ca3","grantRole(bytes32,address)":"2f2ff15d","hasRole(bytes32,address)":"91d14854","issueCertificate(string,address)":"67d4ddf6","removeIssuer(address)":"47bc7093","renounceRole(bytes32,address)":"36568abe","revokeCertificate(uint256)":"06f5497e","revokeRole(bytes32,address)":"d547741f","supportsInterface(bytes4)":"01ffc9a7","transferCertificate(uint256,address)":"cf3ae934","verifyCertificate(uint256)":"1692a942"},"id":42}